:400000000080002011000000F1070000F107000008B5044B1A6803F53F5302331A6000F007FC00BFFA46004010B5054C237833B9044B13B10448AFF300800123237010BD84
:400040004881FF1F00000000C81A0000084B10B51BB108490848AFF300800848036803B910BD074B002BFBD0BDE81040184700BF000000004C81FF1FC81A0000C880FF1F3E
:400080000000000010B590B062B600F03FFA00F057FCAD4800F0F2FF052000F063FFAB4BA0221A70C022DA7001F05CF80021182000F05EFE10B9A64800F072FC00F0CEFE41
:4000C0003222002103A801F0D2F8A24C204600F067FCA14800F064FC204600F061FC0A2000F040FF9D4800F05BFC002409E022469B4903A801F0C4F803A800F051FC01343F
:40010000E4B20F2CF3D900241FE014F00F0F07D12246944903A801F0B3F803A800F040FC0021204600F024FE40B922468C4903A801F0A6F803A800F033FC02E08A4800F02B
:400140002FFC00F08BFE0134E4B214F0800FDCD0864800F025FC0DF10B022221182000F0DBF948B99DF80B20814903A801F088F803A800F015FC02E07E4800F011FC9DF81B
:400180000B30102B14D010228DF80B202221182000F0E0F948B99DF80B20774903A801F06FF803A800F0FCFB02E0744800F0F8FB0DF10A022021182000F0AEF948B99DF878
:4001C0000A206F4903A801F05BF803A800F0E8FB02E0684800F0E4FB9DF80A30642B14D064228DF80A202021182000F0B3F948B99DF80A20634903A801F042F803A800F0E6
:40020000CFFB02E0604800F0CBFB0DF109022321182000F081F948B99DF809205B4903A801F02EF803A800F0BBFB02E0584800F0B7FB9DF80930802B14D080228DF809207E
:400240002321182000F086F948B99DF80920514903A801F015F803A800F0A2FB02E04A4800F09EFB02AA2421182000F055F948B99DF80820484903A801F002F803A800F075
:400280008FFB02E0454800F08BFB9DF80830A3B100228DF808202421182000F05BF948B99DF808203E4903A800F0EAFF03A800F077FB02E03B4800F073FB0DF10702252138
:4002C000182000F029F948B99DF80720364903A800F0D6FF03A800F063FB02E0334800F05FFB9DF80730A3B100228DF807202521182000F02FF948B99DF807202C4903A807
:4003000000F0BEFF03A800F04BFB02E0294800F047FB0DF106022721182000F0FDF848B99DF80620244903A800F0AAFF03A800F037FB02E0214800F033FB214800F06EFED7
:4003400000F07AFEFCE700BFC50300007081FF1FCC1A0000EC1A0000001B0000141B00001C1B0000241B00002C1B0000301B0000341B0000541B0000801B0000B41B000036
:40038000F01B0000101C0000441C0000801C0000A01C0000CC1C0000001D0000201D00004C1D0000801D0000BC1D0000DC1D0000081E00003C1E0000781E0000941E00006C
:4003C0009104000008B500F0C9FA2F4B18706238142858D8DFE800F027574C575757575757575757573F5757570B33571A0000F05BFE012000F0DCFE002000F0CDFE0020E7
:4004000000F0E2FE0122214B1A7008BD002000F0CFFE012000F0C0FE002000F0D5FE00221A4B1A7008BD012000F0CEFE00F09AFE002000F0BDFE002000F0AEFE08BD0120D7
:4004400000F0AAFE00F030FE002000F0BDFE002000F0AEFE08BD002000F09EFE002000F08FFE002000F0B0FE012000F0A1FE08BD00F078FE002000F09BFE002000F08CFE55
:40048000002000F0A1FE08BD7E81FF1F7A81FF1F10B5174A2721182000F03EF838BB144B1A7802F00803DBB212490B7022F07F0211490A70DBB1114C22462C21182000F055
:4004C0002BF8621C2D21182000F026F860B921780B4B597062789A700A4B1B783BB10421074800F06FFA10BD074800F059FA10BD7D81FF1F7B81FF1F7C81FF1F7881FF1FDD
:400500007081FF1F7A81FF1FBC1E000008B500F0B3FA002008BD00BFF8B506460D461746002100F025FC044668B9284600F0B2FC044640B90121304600F05AFC044610B935
:4005400000F0D4FC387000F089FC201C18BF0120F8BD00BF70B50D461646002100F008FC044640B9284600F095FC044618B9304600F090FC044600F071FC201C18BF0120F3
:4005800070BD00BFFEE700BFF0B40022174611E050F82760F3B226F0FF0608E001EB420511F812406D78A5550132013BDBB2002BF4D10137142FEBD9F0BC7047064B1B7841
:4005C000DBB203F00701054A11701B09013213704422034B1A707047CF0100496E5800407658004008B50A46002100F040FE08BD38B54FF49C72274B1A80182202331A7043
:4006000047F22F5202331A80192502331D70022203F27A231A7008224FF040231A70032103F5007319701C4B1B78DBB21B490B701B4B1A8041F25122023B1A8000240CE090
:40064000184B1B7803F0010343EA440404F003044FF4F07000F0C4FD013D0DB1032CEFD115B90320FFF78EFF0F4B4FF480721A8007221A7000220D490A7048200231087089
:400680001A700222033B1A70094A137843F00303137038BD8040004008010049A146004022420040254200400440004006400040A243004008B500F0CFFD08BD38B572B6EF
:4006C000384A137843F00403137000240CE0364D630019194A0011462A44084691882858FFF780FF0134E4B2062CF0D900240BE02D49A3001819420088180622016BC06ADE
:40070000FFF7D8FF0134E4B2002CF1D027494FF09040FFF739FF264A137843F0020313701032137843F002031370224C237843F040032370A2F58632513A137843F010038C
:40074000137008221C491D48FFF7B4FF0A221C491C48FFF7AFFF08221B491C48FFF7AAFF08221B491B48FFF7A5FF08221A491B48FFF7A0FF1A4A137843F008031370194D09
:4007800061232B70FFF734FF81232B700122164B1A70FFF713FF0E2221461448FFF78AFF38BD00BFE8460040C41E00005400004803500140A0430040840400480251004070
:4007C0008C040048C051004098040048F2510040A004004812510040A804004822510040224300400048004004000840B043004008B500F005FD03680C2B00D1FEE7FEE79B
:4008000008B5094B1A681044084BC31A802B02DC054B186005E000F0F3FC0C2303604FF0FF32104608BD00BFCC80FF1F9881FF1F08B5104E104D16E029686B68AC68002207
:4008400004E051F8040B43F8040B0432A242F8D1E868002203E0002143F8041B04328242F9D11035013E002EE6D100F0CFFCFFF709FCFEE701000000541F000008B5104AEC
:40088000104B1A60104A136843F40073136000230AE0032B03D80D4A52F8231000E00C490C4A42F8231001332F2BF2D90A4B1A780A4B1A70074A0A4B1A60FFF7FFFE08BD98
:4008C0000004FA050CED00E014ED00E000000000F10700000080FF1FBC760040C080FF1F08ED00E07222074B1A70202201331A7006225F3B1A70472210331A700022503369
:400900001A7070478965004010B500F071FC04460A4A137843F0200313700132137843F0100313700132137843F01003137000F009FB204600F060FC10BD00BF99650040A6
:4009400008B5054B1B7823B9FFF7CCFF0122024B1A70FFF7D9FF08BD6481FF1F084B1B78DBB213F0200F06D0064A1078C0B213F01E0F02D17047002070470020704700BFBE
:400980006A6500404A650040034B1B7813F0040FFAD1024B187070476B6500404865004038B5074B1B782BB938BDFFF7EDFF0134A4B201E005460024285D0028F5D138BD1E
:4009C0006481FF1F084B1B7833B97047305DFFF7DBFF0134E4B203E070B50D4606460024AC42F3D370BD00BF6481FF1F38B50222114B1A7081220E3B1A70082202331A707F
:400A00000F2511331D70002401331C704FF400420A4B1A600721284600F0CEFA0849284600F0B6FA1022074B1A70074B1C70074B1C70074B1C7038BDD649004080E100E08F
:400A4000A10A00007F81FF1F8D81FF1F8081FF1F8181FF1F08B500F0CBFB064A137843F0040313701032137843F00403137000F0C3FB08BDA543004008B5074B1B7823B994
:400A8000FFF7B4FF0122044B1A70FFF7E3FF4FF40042024B1A6008BD6681FF1F00E100E038B5A54B1C78A54B1B7813F0400F00F03A81E4B214F0010F00F01D819F4B1B783C
:400AC000453B052B00F21481DFE813F006008200120112010600DF0004F0DF0504F00A04082C42D1954B1B78DBB2452B35D1944B1B7813F0FF0F10D0924B1B681B78DBB2E8
:400B0000914A137004228C4B1A7001228F4B1A7046228A4B1A702C46EDE08D4B1B7813F0020F0DD08B4A137843F00A0313706022824B1A704FF40042874B1A602C46DAE0EE
:400B4000864A137843F0100313701022844B1A700422023B1A702C46CDE00022764B1A704A22764B1A702C46C5E00A2C2BD1794A137843F0A0031370754B1B7813F0020F3F
:400B800014D06E4B1B7813F0080F01D0092300E00A23704A11780B4313706022674B1A704FF400426C4B1A602C46A4E06B4A137843F0100313701022694B1A700422023B87
:400BC0001A702C4697E0002000F0CAF92C4692E014F0020F36D15D4B1A78D2B2584B1B78DBB29A4210D2594A1378DBB255490968CB5CDBB254490B7004214F4B1970137807
:400C00000133DBB2137076E0514B1B7813F0020F0CD0504A137843F00A0313706022474B1A704FF400424C4B1A6064E04B4A137843F0100313701022494B1A700422023BFF
:400C40001A7058E0424B1B7813F0020F0CD0414A137843F09A0313706022384B1A704FF400423D4B1A6046E03C4A137843F01003137010223A4B1A700422023B1A70354A76
:400C8000137843F09003137035E0364A1378DBB2354908682C490978C9B2C15413780133DBB213701278D2B2304B1B78DBB29A4203D21022204B1A701DE0254B1B7813F0EC
:400CC000020F0CD0234A137843F00903137060221A4B1A704FF400421F4B1A600BE01F4A137843F0100313700022134B1A7002E0002000F035F914F0200F1CD00F4B1B7895
:400D000013F0080F01D0012300E00223114A11780B431370114A137803F0EF0313701022064B1A7038BD054B1B7813F0100F02D11022024B1A7038BDD74900407F81FF1F46
:400D40008281FF1F8481FF1FD84900408181FF1F8C81FF1F8D81FF1F80E100E0D6490040D94900408081FF1F8881FF1F8E81FF1F1A4B1B78DBB2102B29D1194B1B7813F02E
:400D8000080F26D14FF40042164B1A604000C0B229B140F001004922104B1A7002E045220E4B1A70104B1870012201331A700F4B1B7813F0010FFAD00C4B1B7803F00A0314
:400DC0000A2B08D11022054B1A700320704702207047012070470020704700BF7F81FF1FD949004080E100E0D8490040D7490040164B1B7813F0040F23D04000C0B229B1AD
:400E000040F001004922124B1A7002E04522104B1A70104B1870122201331A700422023B1A700D4B1B7813F0010FFAD00A4B1B7803F00A030A2B06D11022054B1A70032054
:400E40007047022070470020704700BFD94900407F81FF1FD8490040D74900400A4B1B7813F0040F0ED01023074A13700421023A1170064A1370064B1B7813F0210FFAD092
:400E80000020704702207047D94900407F81FF1FD7490040114B1B7813F0040F1BD0104B18700422013B1A7046220E4B1A700E4B1B7813F0010FFAD00B4B1B7813F0020FD2
:400EC00004D16022074B1A70002070476022054B1A70032070470220704700BFD9490040D84900407F81FF1FD7490040114B1B7813F0040F1BD0104B1B78DBB2492B05D124
:400F000000220E4B1A704A220B4B1A700B4B1B7813F0010FFAD00A4B1B78DBB218B11021064A117004E06021034A117000E0002318467047D94900407F81FF1FD74900402F
:400F4000D8490040054A137843F0010313701032137843F001031370704700BFA243004001BE704710B5044605E0084B186800F037F9A4F50044B4F5004FF6D8034B58684C
:400F800000FB04F000F02CF910BD00BFD080FF1F70B504460E46074B1D681F2802D90020FFF7DEFF04F01F04103455F8240045F8246070BD08ED00E038B504460D4607293B
:400FC00002D90020FFF7CCFF1F2C02D90020FFF7C7FF04F01F0000F1604000F564406D01EDB2057038BD00BF014B1B689865704708ED00E04001C0B2014B1870704700BF6B
:4010000006E400E04022014B1A60704700E100E04022014B1A60704780E100E010B50446FFF7F6FF2046FFF7DFFF0720FFF7E2FFFFF7E8FF10BD00BF024B1878C0F380007B
:40104000704700BF82450040014B1B681864704708ED00E04001C0B2014B1870704700BF00E400E00122014B1A60704700E100E00122014B1A60704780E100E010B504460A
:40108000FFF7F6FF2046FFF7DFFF0720FFF7E2FFFFF7E8FF10BD00BF024A137843F080031370704779640040024A137803F07F031370704779640040014B1870704700BFD3
:4010C00009640040014B1870704700BF49640040014B1870704700BF29640040014B1870704700BF89640040014B1878704700BF69640040014B1878704700BF59640040D0
:4011000008B501E0FFF7F6FFFFF7EEFF10F0100FF8D108BD10B5114A137803F0C00343F0090313700E4C237843F0010323706320FFF7C2FF6320FFF7C5FF3220FFF7C8FF2E
:401140000020FFF7CBFF00F053F8237843F01003237000F051F8FFF7D3FF10BD796400409964004008B5054B1B7823B9FFF7D2FF0122024B1A70FFF78FFF08BD6781FF1F2C
:40118000044A137803F0FD03400000F0020018431070704700510040044A137803F0DF03400100F02000184310707047F0510040044A137803F0EF03000100F010001843E2
:4011C00010707047F0510040044A137803F0F703C00000F00800184310707047F05100400230800803D000BF01380046FCD17047EFF3108072B6704780F31088704700BF85
:40120000014B1868704700BF4081FF1F0E4B70B51E460E4C0025E41AA410A54204D056F8253098470135F8E700F082FE084B094C1E46E41AA4100025A54204D056F8253077
:4012400098470135F8E770BD3C1F00003C1F00003C1F0000441F000010B5431E0A44914204D011F8014B03F8014FF8E710BD03460244934202D003F8011BFAE7704700008D
:401280000EB400B54FF402719CB0ADF814106FF00041049107914FF6FF711DAB02900690084853F8042BADF81610006802A9019300F064F8029B00221A701CB05DF804EB99
:4012C00003B070474081FF1F2DE9F0478E6882469E420C46914698463ED88A8912F4906F3AD02568096902236F1A656905EB450595FBF3F57B1C43449D4238BF1D4653059F
:401300000FD5294600F040FB064698B13A462169FFF7A2FFA38923F4906343F08003A38113E02A4600F08EFB064670B92169504600F0DEFA0C23CAF80030A3894FF0FF30F5
:4013400043F04003A381BDE8F08726613E44266046466561ED1BA560464528BF464649463246206800F0A8FAA36800209B1BA36023681E442660BDE8F08700002DE9F04FE2
:401380009DB003938B8980461C060D4616460DD50B695BB9402100F0F7FA2860286118B90C23C8F80030CDE040236B610023099320238DF82930DFF89CB130238DF82A30E0
:4013C00037463C4614F8013B1BB9B7EB060910D003E0252BF9D02746F3E74B46324629464046FFF771FF013000F0A780099B4B4409933B78002B00F0A08000234FF0FF3202
:4014000004930793059206938DF853301A930126052221784E4800F041FA671C049B38B14B4A3C46801A06FA00F018430490EFE7D90644BF20228DF853201A0744BF2B22F0
:401440008DF8532022782A2A03D0079A00210A200BE0039A111D12680391002A10DA524243F00200079204900BE027463B780134303B092B03D800FB02320121F5E701B160
:4014800007923B782E2B1ED17B782A2B0AD1039B02371A1D1B680392002BB8BF4FF0FF33059310E0002319460593781C0A2407463A780130303A092A03D804FB01210123EB
:4014C000F5E703B1059103223978224800F0E6F940B14023CBEB000003FA00F0049B013718430490397806221B487E1C8DF8281000F0D4F988B1194B33B9039B073323F036
:4015000007030833039314E003AB00932A46144B04A94046AFF3008007E003AB00932A460F4B04A9404600F093F8B0F1FF3F824603D0099B5344099342E7AB895B0601D4F3
:40154000099801E04FF0FF301DB0BDE8F08F00BFFC1E0000021F0000061F000000000000C91200002DE9F04791461F460A698B6806469342B8BF1346C9F8003091F84320D3
:401580000C46DDF8208012B10133C9F800302368990642BFD9F800300233C9F80030256815F0060510D104F1190A07E00123524639463046C04701301AD00135E368D9F888
:4015C00000209B1A9D42F1DB94F843302268003318BF012392060FD5E118302081F843005A1C94F845102244023382F8431003E04FF0FF30BDE8F08704F1430239463046D8
:40160000C0470130F4D02268D9F80050E36802F00602042A08BF5D1B2269A3680CBF25EAE57500259342C4BF9B1AED184FF000091A344D4509D00123224639463046C047C7
:401640000130D5D009F10109F3E70020BDE8F0872DE9F04317460A7E85B06E2A984606460C460C9B01F1430E00F0AE8011D8632A22D009D8002A00F0BB80582A40F0CA8061
:4016800081F84520834955E0642A1ED0692A1CD0C0E0732A00F0B08009D86F2A2ED0702A40F0B8800A6842F020020A603EE0752A24D0782A3AD0ADE01A6801F14205111D76
:4016C0001960136884F84230A8E021681A6811F0800F02D0111D196008E011F0400F02F10401196002D0B2F9003000E01368002B3CDA2D225B4284F8432037E021681A688D
:4017000011F0800F02D0111D196007E011F0400F02F10401196001D0138800E01368227E5C496F2A14BF0A2208221BE078225A4984F845202268186812F0800F00F104057C
:401740001D6003D1550601D5038800E00368D00744BF42F0200222601BB9226822F0200222601022002084F8430001E049490A226568002DA56008DB206820F0040020609F
:401780002BB9002D7DD175460CE0002B79D07546B3FBF2F002FB1033CB5C05F8013D03460028F5D1082A0BD12368DA0708D5236962689A42DEBF302305F8013C05F1FF35AE
:4017C000C5EB0E0323612EE008681A6810F0800F496903D0101D1860136808E010F0400F02F104001860136801D0198000E0196000232361754616E01A68111D196015688E
:4018000000216268284600F049F808B1401B6060636804E004F1420584F8422001232361002384F84330CDF800803B4603AA21463046FFF797FE013002D14FF0FF3026E074
:4018400023692A4639463046C0470130F5D023689B0710D5002504F1190907E001234A4639463046C0470130E7D00135E368039A9B1A9D42F2DBE068039B9842B8BF184699
:4018800005E00B7804F1420584F842308AE705B0BDE8F0830D1F00001E1F000010B5C9B202449042034605D01C7801308C42F8D1184610BD002010BD884210B501EB020385
:4018C00001D8421E0BE09842FBD28118D21AD34204D013F8014D01F8014DF8E710BD994204D011F8014B02F8014FF8E710BD000038B50546002944D051F8043C0C1F002B15
:40190000B8BFE41800F0D4F81E4A1368114613B96360146030E0A3420DD92268A018834201BF18685B681218226063600C6023E0A24203D813465A68002AF9D118681918F9
:40194000A1420BD12168014458188242196013D110685268014419605A600DE002D90C232B6009E021686018824201BF106852680918216062605C602846BDE8384000F0E2
:4019800098B838BD6C81FF1F70B5CD1C25F0030508350C2D38BF0C25002D064601DBA94202D90C23336046E000F082F8234B1C681A462146A1B10B685B1B0ED40B2B03D9B9
:4019C0000B60CC18CD501EE08C420BBF63684B681360636018BF0C4615E00C464968E9E7174C23681BB9304600F052F820602946304600F04DF8431C18D0C41C24F00304F2
:401A0000A0420DD12560304600F053F804F10B00231D20F00700C31A0ED05A42E25070BD211A304600F034F80130EBD10C233360304600F03EF8002070BD00BF6C81FF1F74
:401A40006881FF1FF8B5074615460E4621B91146BDE8F840FFF798BF1AB9FFF749FF2846F8BD00F027F885420ED929463846FFF78BFF044650B131462A46FFF7EDFB314676
:401A80003846FFF735FF01E03046F8BD2046F8BD38B5064C0023054608462360FEF7B0FE431C02D1236803B12B6038BD9081FF1F7047704751F8040C0028BEBF091851F840
:401AC000043CC01804387047000000004C495333444820666F756E642040206164647265737320307831380D0A0000002A2A2A2A2A2A2A2A2A2A2A2A2A2A0D0A00000000E7
:401B00002A2A20493243205363616E202A2A0D0A000000000A0A20202000000025303258200000000A253032582000002D2D20000A0A00004354524C2072656769737465F1
:401B40007220332076616C75653A203078253032580D0A00493243206572726F72207768696C652072656164696E67204C49533344485F4354524C5F524547310D0A000050
:401B80000D0A4354524C2072656769737465722033207375636365737366756C6C79207772697474656E2061733A203078253032580D0A000D0A4572726F72206F636375B8
:401BC00072656420647572696E672049324320636F6D6D20746F2073657420636F6E74726F6C20726567697374657220330D0A004354524C207265676973746572203120AD
:401C000076616C75653A203078253032580D0A000D0A4354524C2072656769737465722031207375636365737366756C6C79207772697474656E2061733A2030782530327E
:401C4000580D0A000D0A4572726F72206F63637572656420647572696E672049324320636F6D6D20746F2073657420636F6E74726F6C20726567697374657220310D0A00FF
:401C80004354524C20726567697374657220342076616C75653A203078253032580D0A00493243206572726F72207768696C652072656164696E67204C49533344485F433D
:401CC00054524C5F524547340D0A00000D0A4354524C2072656769737465722034207375636365737366756C6C79207772697474656E2061733A203078253032580D0A00E7
:401D00004354524C20726567697374657220352076616C75653A203078253032580D0A00493243206572726F72207768696C652072656164696E67204C49533344485F43BB
:401D400054524C5F524547350D0A00000D0A4354524C2072656769737465722035207375636365737366756C6C79207772697474656E2061733A203078253032580D0A0064
:401D80000D0A4572726F72206F63637572656420647572696E672049324320636F6D6D20746F2073657420636F6E74726F6C20726567697374657220350D0A004354524CF4
:401DC00020726567697374657220362076616C75653A203078253032580D0A00493243206572726F72207768696C652072656164696E67204C49533344485F4354524C5FDE
:401E0000524547360D0A00000D0A4354524C2072656769737465722036207375636365737366756C6C79207772697474656E2061733A203078253032580D0A000D0A457224
:401E4000726F72206F63637572656420647572696E672049324320636F6D6D20746F2073657420636F6E74726F6C20726567697374657220360D0A004354524C2073746198
:401E80007475735F7265673A203078253032580D0A000000493243206572726F72207768696C652072656164696E67207374617475735F7265670D0A000000004572726FE6
:401EC00072650000C8490040190030510040400000000140001000140140000800400140000A004C014000020050014020000000605200407C04004806004300232D302B79
:401F00002000686C4C00656667454647003031323334353637383941424344454600303132333435363738396162636465660000F8B500BFF8BC08BC9E4670474D0000008D
:401F40007D080000F8B500BFF8BC08BC9E46704729000000681F0000C880FF1F800000005000000000000000000000009881FF1F0000E02EC05D00001800000000366E0158
:401F80000000000000000000000000000000000000000000000000000000000000000000FA1E00000000000000000000000000000000000000000000000000000000000009
:401FC0000000000000000000000000000000000000000000000000000000000000000000E080FF1F0000000000000000000000000000000000000000000000000000000063
:4020000000000000000000000000000000000000000000000000000000000000000000000000000000000000000000000000000000000000000000000000000000000000A0
:402040000000000000000000000000000000000000000000000000000000000000000000000000000000000000000000000000000000000000000000000000000000000060
:402080000000000000000000000000000000000000000000000000000000000000000000000000000000000000000000000000000000000000000000000000000000000020
:4020C00000000000000000000000000000000000000000000000000000000000000000000000000000000000000000000000000000000000000000000000000000000000E0
:020000040003F7
:0200000480007A
:40000000014500400164004003650040520801403209014005150140011701404E180140491901405E1A0140501B01400240014003410140044201400343014004480140D0
:4000400013490140074C0140104D014004500140025101401201890D89728A388B0F0430060A08020A1816301A101C0120042208240128012C022E28320634383601380850
:400080003A2058045F01813C8342857F860489678A028B188D3C8E018F4192019401951899089D109E08A204A343A504A608A801AB04AE02B004B158B201B402B520B60866
:4000C000B71FB808BB8ABE51BF10C010C106C5D2C601C807C9FFCAFFCBFFCDA0CF04D018D280D405D804D904DA04DB04DD11DF01E040E2C0E440E540E6C0E8C0EAC0ECC0E2
:40010000EEC0004001080308051409080A810D400E200F0812A2131015141741180419801B091D101E221F802040210C2258230128202A202B8030A8384039283B11420191
:4001400049014A204B20534059015A405B0873807E207F10C067C2EDC4FFCA07CC0ECE0FD008D204D60BE001E204E611E820EA01E2100203045C0602086C0A110D030E20C9
:400180000F041409150A16101704181019031B041D031F0C24142B082C702E0C2F05301F310F326038083B023E044015410346BC47E0482C49FF4AFF4BFF4EF04F44500C6E
:4001C000580459045A045F0166C06A406B02811C8363850C89048D0F8F709142957F99739B0C9D089E01A163A521A601A780AE02AF73B160B201B380B50FB602B71CBB20A6
:40020000D602D711D804D904DB04DC01DF010595060107050A010C040E200F08122013801610174018101A011D091F0221342281274028212B802C042D8030803122320863
:40024000340135143601374038683B013C804104422047444D805440550156505A20699470BC79027A808C1090449220938195B4964199109B809C209D0C9E209F41A2391B
:40028000A301A4A8A682A704A980AB08C0F0C261C4A5CA3BCC7FCE1FD050D210D604E2100104030A050C0801090C0C0411081203130623013001310C3202340437033E103A
:4002C0003F404025410642044401450C47E0482149FF4AFF4BFF4C624DA04EF04F41500C54185604580459045A045B045C015F016640670269106A306B106D106E106F12B5
:40030000804081018220840C861388118A0E8E1390809220960C9A089C209EC0A210A4E0A8E0AC11AE06B20FB410B501B6E0BA08BE10BF10C003C704C9FFCA07CBFFCC4062
:40034000CD20CEF0CF05D008D401D804D904DA04DB04DF01E040E1A8E240E320001003020402051406010B800D020E210F0815141640174018101A401B201C081D041E011B
:400380001F802001210227082B803102380239143D0340014111450849084A095202560157045A025C805D015F286004610163028101832088C48B208C21900491369202FC
:4003C0009380964099109A409B409C209D0C9E01A040A109A219A303A502A602A784C0F3C2F8C4F0CA01CC01CE87D04DD20CD6F1D80DE001E404E611E820EA013080CC1059
:400400005220A480D4203E10A480A620CE209610A480A6208E209610A480A62013021704710474088080810483048C089F02A480AA10B302C430DC80DE20E080E220E68033
:40044000EA8011021320170478107D20C40EDE0312807001800181118E808F049B04A101A510AB20B010C408DC01E202E608E80400030C0310031C03000303C002800000AE
:400480004300000000020200020000008300408083008300000000000038380000000000000B0B000000000004000000000000000000000000000000000000000000000020
:4004C00000000000000000000000000000000000000000000000000000000000000000000000000000000000000000000000000000000000000000000000000000000000FC
:4005000000000000000000000000000000000000000000000000000000000000000000000000000000000000000000000000000000000000000000000000000000000000BB
:40054000000000000000000000000000000000000000000000000000000000000000000000000000000000000000000000000000000000000000000000000000000000007B
:40058000000000000000000000000000000000000000000000000000000000000000000000000000000000000000000000000000000000000000000000000000000000003B
:0200000490006A
:0400000000004005B7
:0200000490105A
:04000000BC90ACAF55
:0200000490303A
:020000009086E8
:0200000490402A
:4000000000000000000000000000000000000000000000000000000000000000000000000000000000000000000000000000000000000000000000000000000000000000C0
:400040000000000000000000000000000000000000000000000000000000000000000000000000000000000000000000000000000000000000000000000000000000000080
:400080000000000000000000000000000000000000000000000000000000000000000000000000000000000000000000000000000000000000000000000000000000000040
:4000C0000000000000000000000000000000000000000000000000000000000000000000000000000000000000000000000000000000000000000000000000000000000000
:0200000490501A
:0C00000000012E16106900012E22A0EF56
:00000001FF